:1000000012C0189518951895189518951895189563
:100010001895189518951895189518951895189578
:100020001895189518958FE58DBFC0E4E8E34E2E1E
:1000300084E08EBFD4E0F4E05F2EEEEFF3E0A0E6C4
:10004000B0E0A89584B7082E877F84BF88E1992700
:1000500081BD91BD88278D933197E9F77ED36624C2
:1000600078946AD38CE0C1D38F9AA398A498A5986A
:10007000AB9AAC9AAD9A0027A3E3B0E08C9184FBD5
:100080000EF401E040E0041709F035C055D34BD31E
:10009000EAECF9E042D380E090E0A5E7B0E08D9390
:1000A0009C93A5E7B0E00D911C910F3E51E0150720
:1000B00010F009F020C080E0A5E7B0E0AD90BC9062
:1000C000ABE7B0E0AA0DBB1D8C93E5E7F0E0A19093
:1000D000B080EFEFFFEFEA0DFB1DA0E1BB2780E052
:1000E0008C937BE757D485E090E0CAD3A5E7B0E0D6
:1000F000E4D208F4D6CFB8981FD315D3EAEDF9E0CF
:100100000CD315D3E4EEF9E008D381E080936B02C1
:1001100081E090E0A5E7B0E08D939C93A5E7B0E087
:100120000D911C910F3E51E0150710F009F019C018
:10013000E5E7F0E0A190B080EFEFFFEFEA0DFB1DE7
:10014000A5E7B0E0AD90BC90ABE7B0E0AA0DBB1D59
:1001500032D485E090E094D3A5E7B0E0AED208F4C5
:10016000DDCF75D3A0E6B0E08C9300916000003045
:1001700009F428C0ABD000917002003009F006C02D
:10018000DBD2D1D2E6EFF9E0C8D210C0D5D2CBD2C3
:10019000E6E0FAE0C2D2A0E2B4E0E0E7F2E0AAD3FF
:1001A000B4D2979AE1E0F0E0CFD29798E3E0F0E0A4
:1001B000CBD2C2D2B8D2EAEDF9E0AFD2B8D2E4EEF7
:1001C000F9E0ABD20027A3E3B0E08C9184FB0EF4FE
:1001D00001E040E0041709F078C0AED2A4D2E4E117
:1001E000FAE09BD2A4D2A0E2B4E0EBE6F2E082D344
:1001F0008CD2E1E0F0E0A8D20027A3E3B0E08C913C
:1002000084FB0EF401E041E0041709F047C0002729
:10021000A3E3B0E08C9183FB0EF401E040E004170F
:1002200009F019C0ABE6B2E08C918F5F8C9300911E
:100230006B020D3210F009F001C003C08DE2809313
:100240006B0275D2A0E2B4E0EBE6F2E053D35DD2EC
:100250008AEF90E015D30027A3E3B0E08C9185FBF3
:100260000EF401E040E0041709F017C080916B0222
:10027000815080936B0200916B02013008F003C043
:1002800081E080936B0253D2A0E2B4E0EBE6F2E0AF
:1002900031D33BD28AEF90E0F3D2AECF4DD243D2EE
:1002A000E4EEF9E03AD243D2E0E2FAE036D2D3D239
:1002B000A0E6B0E08C93B9D03FD235D2EAEDF9E0B8
:1002C0002CD235D2E4EEF9E028D24BCF81E090E099
:1002D000A5E7B0E08D939C93A5E7B0E00D911C914C
:1002E0000B3050E0150710F009F014C0B4D2A0E6AE
:1002F000B0E08C9380916000A5E7B0E0AD90BC9039
:10030000A0E6B0E0AA0DBB1D8C93A5E7B0E0D5D167
:1003100008F4E2CF80E08093700281E090E0A5E7EE
:10032000B0E08D939C93A5E7B0E00D911C910D3248
:1003300050E0150710F009F077C0A5E7B0E00D9187
:100340001C914BE050E0ABD2AEE6B2E00D931C93B3
:10035000AEE6B2E00D911C914AE050E0041B150B93
:10036000ACE6B2E00D931C9380E080937B00ACE69A
:10037000B2E08D919C91A7E7B0E08D939C93AEE69F
:10038000B2E04D915C91A7E7B0E00D911C9104178C
:10039000150710F009F039C0A7E7B0E00D911C91E6
:1003A000ACE6B2E04D915C91041B150BA9E7B0E0FF
:1003B0000D931C93A9E7B0E00D911C9141E050E032
:1003C000040F151FA9E7B0E00D931C93A7E7B0E059
:1003D000AD90BC90ABE7B0E0AA0DBB1D4C91A9E776
:1003E000B0E0AD90BC90A0E6B0E0AA0DBB1D0C91B2
:1003F000041709F005C0ABE7B0E08C918F5F8C93D8
:10040000A7E7B0E05AD108F4BACF00917B000B30D7
:1004100009F005C0809175008093700205C0A5E7C2
:10042000B0E04BD108F47FCF089581E090E0A5E7DC
:10043000B0E08D939C93A5E7B0E00D911C910B303B
:1004400050E0150710F009F014C005D2A0E6B0E0A6
:100450008C9380916000A5E7B0E0AD90BC90A0E6E1
:10046000B0E0AA0DBB1D8C93A5E7B0E026D108F43F
:10047000E2CF80E08093700281E090E0A5E7B0E0F9
:100480008D939C93A5E7B0E00D911C910D3250E047
:10049000150710F009F077C0A5E7B0E00D911C91A9
:1004A0004BE050E0FCD1AEE6B2E00D931C93AEE61B
:1004B000B2E00D911C914AE050E0041B150BACE634
:1004C000B2E00D931C9380E080937B00ACE6B2E039
:1004D0008D919C91A7E7B0E08D939C93AEE6B2E03E
:1004E0004D915C91A7E7B0E00D911C9104171507A1
:1004F00010F009F039C0A7E7B0E00D911C91ACE60F
:10050000B2E04D915C91041B150BA9E7B0E00D938F
:100510001C93A9E7B0E00D911C9141E050E0040F5D
:10052000151FA9E7B0E00D931C93A7E7B0E0AD90CD
:10053000BC90ABE7B0E0AA0DBB1D4C91A9E7B0E0C1
:10054000AD90BC90A0E6B0E0AA0DBB1D0C910417C5
:1005500009F005C0ABE7B0E08C918F5F8C93A7E703
:10056000B0E0ABD008F4BACF00917B000B3009F0BB
:1005700005C0809175008093700205C0A5E7B0E0CA
:100580009CD008F47FCF00917002003009F40DC0B8
:10059000D3D0C9D0E2E3FAE0C0D0C9D0EEE3FAE0AC
:1005A000BCD0E4E0F0E0D0D087C0ABE6B2E00D9183
:1005B00011274BE050E073D1AEE6B2E00D931C93EF
:1005C000AEE6B2E00D911C914AE050E0041B150B21
:1005D000ACE6B2E00D931C93AFD0A5D0ECE4FAE00A
:1005E0009CD0A5D0ECE5FAE098D0ACE6B2E08D91D5
:1005F0009C91A5E7B0E08D939C93AEE6B2E04D915F
:100600005C91A5E7B0E00D911C910417150710F05F
:1006100009F046C0A5E7B0E00D911C91ACE6B2E050
:100620004D915C91041B150BA9E7B0E00D931C9351
:10063000A9E7B0E00D911C9141E050E0040F151FB7
:10064000A9E7B0E00D931C93A9E7B0E0AD90BC9092
:10065000A0E6B0E0AA0DBB1D8C91A5E7B0E0AD907F
:10066000BC90ABE7B0E0AA0DBB1D8C93E5E7F0E0D2
:10067000A190B080EFEFFFEFEA0DFB1DA9E7B0E01E
:10068000AD90BC90A0E6B0E0AA0DBB1D7BE782D187
:1006900084E690E0F5D0A5E7B0E00FD008F4ADCF48
:1006A0004BD041D0E2E6FAE038D041D0EEE6FAE0B5
:1006B00034D0E2E0F0E048D00895ED91FC91EF5F96
:1006C000FF4FFC93EE93089504D0E9D000FC0CD0CA
:1006D00008950024E89457FF02C009D0689400F8F8
:1006E0000BD010F80124089502D009D00895509538
:1006F00040954F5F5F4F0895E89417FF0895009568
:1007000010950F5F1F4F68940895A0E2B4E08D919B
:10071000882311F064D0FBCF0895CBD0802D11F049
:100720005ED0FBCF089582E060D014D00AC082E092
:100730005CD010D080EC59C081E057D00BD080E85D
:1007400054C080E852D0089588EE93E099D0319754
:10075000D9F7089583E0992793C08AEF90E090D06D
:10076000B99ABA9ABB9ABC9AA09AA19AA99885E01C
:1007700090E086D0A898C198C298C39AC49AA89AC3
:10078000EF93FF93E1E1F1E050D0FF91EF91A89852
:1007900074D0A89AEF93FF93E1E1F1E046D0FF9186
:1007A000EF91A8986AD0A89AEF93FF93E1E1F1E066
:1007B0003CD0FF91EF91A89860D0C498A89AEF938D
:1007C000FF93E1E1F1E031D0FF91EF91A89855D08E
:1007D00088E20BD08EE009D086E007D00895A99A70
:1007E000829505D004D049D00895A998F9CF859570
:1007F00010F4C49A01C0C498859510F4C39A01C03E
:10080000C398859510F4C29A01C0C298859510F4DA
:10081000C19A01C0C198A89AEF93FF93E1E1F1E07A
:1008200004D0FF91EF91A89808953197F1F70895BA
:10083000689462F80895E89462F808958F939F93FE
:100840008BE890E00197F1F79F918F910895B09B0D
:1008500005C088270895B09B01C0FDCF29E0B0995D
:10086000FECFECDFEBDFEADF8894B09908942A959D
:1008700019F087959795F6CF089581E090E000C034
:10088000EF93FF93EE27E82BE92B31F0EDECFAE044
:100890003197F1F70197D1F7FF91EF9108950F92FA
:1008A000B801469F8001479F100D569F100D0F9075
:1008B0000895C895319600200895000F111F221F3A
:1008C000331F089500951095209530950F5F1F4FA9
:1008D0002F4F3F4F0895019110810EC0019111914A
:1008E000219130810BC00191108117FF05C03FEFAE
:1008F0002FEF04C0008111272227332737FF03C0C1
:10090000E1DF8DE28D93CF93DF93CF92DF92EF9271
:10091000AA24BB24CC24DD24EE2440E2CAE0DD2757
:1009200055E093E38881890F87FD9F7083FD907F59
:10093000891B89935A95A9F7C0DFAA1CBB1CCC1C44
:10094000DD1CEE1C4A9551F7E894EFE0FF278291F9
:100950000ED0EB30E0F71EF068948A2D0CD088277B
:100960008D93EF90DF90CF90DF91CF910895982FE6
:10097000829501D0892F8F70805D26F0803309F435
:10098000089568948D930895E199FECFEEBBFFBB67
:100990003196089591E001C092E07B3751F47FB722
:1009A000F894F2DF8D918DBBE29AE19A9A95C9F79E
:1009B0007FBF7727089591E001C092E0E5DFE09ADC
:1009C0008DB38D939A95D1F708954D656D6F7279BA
:1009D0002045726173656421000057656C636F6D1B
:1009E00065210000496E7365727420596F7572201D
:1009F00043617264000055736572206E6F74204D00
:100A000061746368210055736572204E756D62656F
:100A1000723A2000496E736572742049443F0000A9
:100A2000466F72205361766520596F757220496454
:100A300000004E6F7420416C6C6F7721000055737D
:100A400065722049732055736564000057616974AD
:100A500020466F72205772697465000044617461AA
:100A600021005772697465204461746100005375F8
:0A0A7000636365737366756C7900AB
:00000001FF
